:100000000C9462000C948A000C948A000C948A0070
:100010000C948A000C948A000C948A000C948A0038
:100020000C948A000C948A000C948A000C948A0028
:100030000C948A000C948A000C948A000C948A0018
:100040000C94C6020C948A000C9494020C946E02D8
:100050000C948A000C948A000C948A000C948A00F8
:100060000C948A000C948A000000000025002800EF
:100070002B0000000000240027002A0000000000E0
:1000800023002600290004040404040404040202DA
:100090000202020203030303030301020408102007
:1000A0004080010204081020010204081020000012
:1000B0000008000201000003040700000000000027
:1000C0000000EC0511241FBECFEFD8E0DEBFCDBF8E
:1000D00012E0A0E0B1E0E2E6F2E102C005900D928C
:1000E000AC30B107D9F722E0ACE0B2E001C01D921C
:1000F000A23BB207E1F710E0C2E6D0E004C02197CE
:10010000FE010E945106C136D107C9F70E941003B3
:100110000C942F090C940000AF92BF92CF92DF9203
:10012000EF92FF920F931F93CF93DF936C017B01AC
:100130008B01040F151FEB015E01AE18BF08C0173D
:10014000D10759F06991D601ED91FC910190F081B0
:10015000E02DC6010995892B79F7C501DF91CF9173
:100160001F910F91FF90EF90DF90CF90BF90AF90D5
:100170000895FC01538D448D252F30E0842F90E0AD
:10018000821B930B541710F0CF9608950197089592
:10019000FC01918D828D981761F0A28DAE0FBF2F5B
:1001A000B11D5D968C91928D9F5F9F73928F90E0B1
:1001B00008958FEF9FEF0895FC01918D828D981720
:1001C00031F0828DE80FF11D858D90E008958FEF5D
:1001D0009FEF0895FC01918D228D892F90E0805C26
:1001E0009F4F821B91098F739927089585E192E0B3
:1001F0000E94EA0021E0892B09F420E0822F089573
:1002000080E090E0892B29F00E94F60081110C9487
:1002100000000895FC01A48DA80FB92FB11DA35AA9
:10022000BF4F2C91848D90E001968F739927848F16
:10023000A689B7892C93A089B1898C918370806439
:100240008C93938D848D981306C00288F389E02DDA
:1002500080818F7D80830895EF92FF920F931F938B
:10026000CF93DF93EC0181E0888F9B8D8C8D981369
:100270001AC0E889F989808185FF15C09FB7F89475
:10028000EE89FF896083E889F989808183708064C1
:1002900080839FBF81E090E0DF91CF911F910F910C
:1002A000FF90EF900895F62E0B8D10E00F5F1F4F1B
:1002B0000F731127E02E8C8D8E110CC00FB607FC2A
:1002C000FACFE889F989808185FFF5CFCE010E94B8
:1002D0000A01F1CFEB8DEC0FFD2FF11DE35AFF4F1B
:1002E000F0829FB7F8940B8FEA89FB898081806246
:1002F000CFCFCF93DF93EC01888D8823B9F0AA8903
:10030000BB89E889F9898C9185FD03C0808186FDD0
:100310000DC00FB607FCF7CF8C9185FFF2CF80811F
:1003200085FFEDCFCE010E940A01E9CFDF91CF9189
:10033000089585E192E00E947901E5E1F2E0A28969
:10034000B3898C918F7E8C93A289B3898C91877F9E
:100350008C93A289B3898C918F778C93A289B3896E
:100360008C918F7D8C93828D818F08953FB7F89407
:100370008091110290911202A0911302B091140287
:1003800026B5A89B05C02F3F19F00196A11DB11DF0
:100390003FBFBA2FA92F982F8827BC01CD01620F2C
:1003A000711D811D911D42E0660F771F881F991FE7
:1003B0004A95D1F70895FC0101900020E9F73197A3
:1003C000AF01481B590BBC0185E192E00C948C00F5
:1003D0008CE591E00C94DB018F929F92AF92BF92DB
:1003E0000F931F93CF93DF93CDB7DEB7A1970FB6CF
:1003F000F894DEBF0FBECDBF19A2423008F44AE028
:100400008E010F5D1F4F842E912CB12CA12CA501C4
:1004100094010E942F06E62FB901CA01EA30F4F4D4
:10042000E05DD801EE938D01232B242B252B79F74A
:1004300090E080E0109719F0CD010E94DB01A196B9
:100440000FB6F894DEBF0FBECDBFDF91CF911F91E5
:100450000F91BF90AF909F908F900895E95CE1CF8E
:100460000C94DB01CF93DF930E94DB01EC010E942F
:10047000E8018C0F9D1FDF91CF9108959F92AF925D
:10048000BF92CF92DF92EF92FF920F931F93CF9381
:10049000DF935C017B018B01D0E0C0E0F80191901B
:1004A0008F016501CC0EDD1EC6010E94190698164B
:1004B00021F0692DC6010E9421062196C630D10582
:1004C00069F7C701DF91CF911F910F91FF90EF90D6
:1004D000DF90CF90BF90AF909F9008951F920F92A2
:1004E0000FB60F9211242F933F934F935F936F9307
:1004F0007F938F939F93AF93BF93EF93FF9385E188
:1005000092E00E940A01FF91EF91BF91AF919F91FC
:100510008F917F916F915F914F913F912F910F90AC
:100520000FBE0F901F9018951F920F920FB60F924B
:1005300011242F938F939F93EF93FF93E0912502C4
:10054000F09126028081E0912B02F0912C0282FD35
:100550001BC0908180912E028F5F8F7320912F029C
:10056000821741F0E0912E02F0E0EB5EFD4F958F97
:1005700080932E02FF91EF919F918F912F910F9079
:100580000FBE0F901F9018958081F4CF1F920F928D
:100590000FB60F9211242F933F938F939F93AF9396
:1005A000BF9380910D0290910E02A0910F02B09125
:1005B000100230910C0223E0230F2D3758F50196DD
:1005C000A11DB11D20930C0280930D0290930E0289
:1005D000A0930F02B0931002809111029091120229
:1005E000A0911302B09114020196A11DB11D809338
:1005F000110290931202A0931302B0931402BF91C0
:10060000AF919F918F913F912F910F900FBE0F90BF
:100610001F90189526E8230F0296A11DB11DD2CF79
:10062000CF93DF93CDB7DEB7C455D1090FB6F89499
:10063000DEBF0FBECDBF789484B5826084BD84B523
:10064000816084BD85B5826085BD85B5816085BDCD
:1006500080916E00816080936E0010928100809185
:10066000810082608093810080918100816080930D
:100670008100809180008160809380008091B10032
:1006800084608093B1008091B00081608093B0005D
:1006900080917A00846080937A0080917A008260F1
:1006A00080937A0080917A00816080937A008091B3
:1006B0007A00806880937A001092C10086E0E0E0C2
:1006C000F1E0DE01A55BBF4F01900D928A95E1F745
:1006D00086E0E6E0F1E0DE01DF9601900D928A957A
:1006E000E1F78EE3ECE0F1E0DE01119601900D926E
:1006F0008A95E1F7E0912502F091260282E080835D
:10070000E0912102F09122021082E0912302F09107
:10071000240280E1808310922D02E0912902F09161
:100720002A0286E08083E0912702F09128028081EE
:1007300080618083E0912702F091280280818860A7
:100740008083E0912702F091280280818068808375
:10075000E0912702F091280280818F7D80838FE5D0
:1007600091E00E9432025DE9E52E50E0F52EF7019E
:10077000249109E810E0F80184918823C9F090E001
:10078000880F991FFC01EE58FF4FA591B491FC0111
:10079000E859FF4F459154919FB7F8943C91822FAF
:1007A000809583238C93DA018C91282B2C939FBF07
:1007B0000E94B6012B013C0134E6832E912CA12C22
:1007C000B12C0E94B6016419750986099709683E23
:1007D000734081059105A8F3B1E08B1A9108A10837
:1007E000B108E8EE4E0EE3E05E1E611C711C811440
:1007F0009104A104B10429F76E01F5E4CF0ED11CD8
:100800004601B12CA12CC5010E941906D4018D937B
:100810004D01BFEFAB1ABB0AE6E0AE16B10499F783
:10082000FE01E55BFF4FC6010696D6013D916D01C5
:10083000219132139BC0A817B907B9F790E080E067
:10084000E1EBF0E02491F701E490F801049100233A
:1008500009F4B1C0222359F0233009F495C008F0FF
:1008600088C0213009F496C0223009F497C0E02FE7
:10087000F0E0EE0FFF1FE458FF4FA591B4912C91CB
:10088000E22209F498C0892B09F095C080E891E034
:100890000E94320283E991E00E94320210E000E0FF
:1008A0008CE9A82E81E0B82E7E01F1E5EF0EF11C57
:1008B00094EA892E91E0992E1F930F93BF92AF92E5
:1008C000FF92EF920E945706C7010E9430020F90DC
:1008D0000F900F900F900F900F90D12CC12CC8014A
:1008E0008C0D9D1D0E9419061F928F939F928F92CF
:1008F000FF92EF920E945706C7010E9430020F90AC
:100900000F900F900F900F900F902FE0C216D10410
:1009100021F089EA91E00E9430028FEFC81AD80ACC
:1009200090E1C916D104D9F60E94E801005F1F4F7B
:100930000035110509F68BEA91E00E94300285E14D
:1009400092E00E94EA0018161906CCF785E192E0C1
:100950000E94C8008937910571F10E94E80182EC7C
:1009600091E00E9432020E949901FFCF81E090E065
:1009700067CF2730B1F02830D1F0243009F077CF9D
:10098000209180002F7D03C0209180002F7720933D
:1009900080006DCF24B52F7724BD69CF24B52F7D7E
:1009A000FBCF2091B0002F772093B00060CF209133
:1009B000B0002F7DF9CFBE01655B7F4F90E080E0F6
:1009C0000E943E0286EC91E00E94320281ED91E0AD
:1009D0000E94300210E000E0C8010E941906682F52
:1009E00070E090E080E040E10E94EC0189EA91E053
:1009F0000E9430020F5F1F4F0630110569F78EE528
:100A000091E00E94320289ED91E00E943002F12CC7
:100A1000E12C10E000E0ADE0EA16F10429F185E1F7
:100A200092E00E94EA0018161906ACF785E192E000
:100A30000E94C8007C016C01B0E3CB1AD108EAE047
:100A4000CE16D10440F7B60190E080E04AE00E9463
:100A5000EC012AE0209FC001219F900D1124860106
:100A6000080F191F7601D7CF8EE591E00E94320260
:100A700086E991E00E943002B80190E080E04AE00F
:100A80000E94EC010E94E80124961FAF249725964E
:100A90000FAF25978EEE91E00E9430027E01FFE3BA
:100AA000EF0EF11C10E000E06701D7016D917D01B0
:100AB00070E090E080E040E10E94EC01053011051B
:100AC00021F08AE991E00E9430020F5F1F4F06304B
:100AD000110559F70E94E801B60186E090E00E94F6
:100AE0003E028BEF91E00E94300210E000E0C8016E
:100AF00006960E941906682F70E090E080E040E1C1
:100B00000E94EC010530110521F08AE991E00E9474
:100B100030020F5F1F4F0630110549F725968FAD44
:100B20002597825E8F778A838B8B8DA38DAB8EE525
:100B300091E00E943202FE0131967F0100E110E057
:100B4000D701DD907D01C8010E941906D81621F059
:100B50006D2DC8010E9421060F5F1F4F0E34110535
:100B600079F780E092E00E94320283E991E00E94EE
:100B70003202F12CE12C10E000E0C701800F911F40
:100B80000E941906682F70E090E080E040E10E942A
:100B9000EC010F30110521F089EA91E00E9430024A
:100BA0000F5F1F4F0031110541F70E94E801B0E1CE
:100BB000EB0EF11CE0E5EE16F104E9F60E94990156
:100BC00000E010E001151105E9F30E94F60088230A
:100BD000C9F30E940000F6CFE5E1F2E01382128231
:100BE00088EE93E0A0E0B0E084839583A683B7838A
:100BF0008EE491E09183808385EC90E095878487F3
:100C000084EC90E09787868780EC90E0918B808BD6
:100C100081EC90E0938B828B82EC90E0958B848BBF
:100C200086EC90E0978B868B118E128E138E148E2D
:100C30000895F999FECF92BD81BDF89A992780B5A4
:100C40000895262FF999FECF1FBA92BD81BD20BD10
:100C50000FB6F894FA9AF99A0FBE01960895A1E298
:100C60001A2EAA1BBB1BFD010DC0AA1FBB1FEE1F26
:100C7000FF1FA217B307E407F50720F0A21BB30B71
:100C8000E40BF50B661F771F881F991F1A9469F7ED
:100C900060957095809590959B01AC01BD01CF0149
:100CA0000895EE0FFF1F0590F491E02D0994AEE03A
:100CB000B0E0EDE5F6E00C9406090D891E8986E0AA
:100CC0008C831A8309838FEF9FE79E838D83AE0108
:100CD000475E5F4F6F89788DCE0101960E947A063C
:100CE0002F813885020F131FF80110822E96E4E041
:100CF0000C942209ABE0B0E0E0E8F6E00C94F808D0
:100D00007C013B018A01FC0117821682838181FFED
:100D1000C8C1CE0101965C01F7019381F30193FDF7
:100D2000859193FF81913F01882309F453C1853256
:100D300039F493FD859193FF81913F01853229F428
:100D4000B70190E00E946A08E7CF912C212C312C4A
:100D5000FFE1F31538F08B3211F190F4803209F194
:100D6000833229F137FC3CC020ED280F2A3050F5A2
:100D700036FE20C08AE0989E200D1124922E06C0D7
:100D80008D3291F0803371F7689430F8F30193FD60
:100D9000859193FF81913F018111DACF21C0689441
:100DA00031F8689432F8F2CF689433F8EFCF689452
:100DB00034F8ECCFEAE02E9E200D1124222E689408
:100DC00035F8E4CF8E3229F436FC04C1689436F845
:100DD000DDCF8C3619F4689437F8D8CF8836B1F265
:100DE000982F9F7D95549330E0F08336A1F183379F
:100DF000C1F1833509F063C02801F2E04F0E511CA8
:100E0000F801C080D180692D70E036FC02C06FEF20
:100E10007FEFC6010E9454084C01689437F88201A4
:100E20000AC00C5F1F4FFFE3F98388248394912C41
:100E30006501E89437F833FE2DC0522C81149104DB
:100E400071F5552009F468CFB70180E290E00E9467
:100E50006A085A94F6CFF801808189830E5F1F4F8C
:100E6000E4CF2801F2E04F0E511CF801C080D18080
:100E7000692D70E036FC02C06FEF7FEFC6010E9463
:100E80005F084C018201D5CFB70180E290E00E945B
:100E90006A082A942814190409F0B0F7CECFF60195
:100EA00037FC859137FE81916F01B70190E00E9478
:100EB0006A0851105A94F1E08F1A9108BFCF843616
:100EC00019F0893609F077C0F80137FE6BC06081F0
:100ED0007181828193810C5F1F4FF32DFF763F2E2E
:100EE00097FF09C090958095709561957F4F8F4FC2
:100EF0009F4F689437F82AE030E0A5010E949A08D5
:100F0000C82ECA188C2C432C36FE0CC0E89440F82E
:100F1000C91440F434FE05C032FC03C0F32DFE7E3C
:100F20004F2E892C44FE95C0FE01EC0DF11D8081F1
:100F3000803309F087C0242D297E422E842D8870AD
:100F4000582E43FC95C040FE8FC09C2C821418F490
:100F50002C0C922C981844FE91C0B70180E390E0CD
:100F60000E946A0842FE09C088E790E041FE02C084
:100F700088E590E0B7010E946A08C91408F48AC0A5
:100F8000CA94D12C9FEFC91AD90ACA0CDB1CF601EE
:100F900082916F01B70190E00E946A08AC14BD0411
:100FA000B1F74FCF60817181072E000C880B990B30
:100FB0000E5F1F4F92CFD32CE894D4F82AE030E094
:100FC000853739F1232D297FD22E8F3601F148F450
:100FD0008835A9F0F701868197812B96E2E10C9480
:100FE0001409803749F08837A9F7D4FE02C0689405
:100FF000D2F820E130E00DC06894D4F8F6CF34FE8A
:1010000003C0822F8660D82E20E132E002C028E0A3
:1010100030E0F801D7FE0FC0608171818281938139
:101020000C5F1F4FA5010E949A08C82ECA183D2CBC
:10103000E89437F867CF6081718190E080E00E5FBF
:101040001F4FF0CF42FC02C0839478CF83948394E7
:1010500075CF842D867809F471CFF6CFB70180E281
:1010600090E00E946A0883948214C0F3512C73CFDD
:10107000522C5818821408F46ECFF8CF842D86783D
:1010800009F47BCF8BE241FE80E247FC8DE2B701A1
:1010900090E071CFB70180E390E00E946A089A94D3
:1010A0006CCF8FEF9FEF99CFFC010590615070409E
:1010B0000110D8F7809590958E0F9F1F0895FC0121
:1010C0006150704001900110D8F7809590958E0F77
:1010D0009F1F08950F931F93CF93DF93182F092F0E
:1010E000EB018B8181FD09C01FEF0FEF812F902F46
:1010F000DF91CF911F910F91089582FF14C02E812F
:101100003F818C819D81281739073CF4E881F98162
:10111000CF0101969983888310838E819F810196E8
:101120009F838E83E3CFE885F985812F0995892BED
:10113000A1F3DACFFA01AA27283051F1203181F149
:10114000E8946F936E7F6E5F7F4F8F4F9F4FAF4FCF
:10115000B1E03ED0B4E03CD0670F781F891F9A1FE2
:10116000A11D680F791F8A1F911DA11D6A0F711D96
:10117000811D911DA11D20D009F468943F912AE0A2
:10118000269F11243019305D3193DEF6CF0108958A
:10119000462F4770405D4193B3E00FD0C9F7F6CFBB
:1011A000462F4F70405D4A3318F0495D31FD405283
:1011B000419302D0A9F7EACFB4E0A6959795879519
:1011C00077956795BA95C9F70097610571050895F8
:1011D0009B01AC010A2E06945795479537952795A4
:1011E000BA95C9F7620F731F841F951FA01D08953C
:1011F0002F923F924F925F926F927F928F929F9227
:10120000AF92BF92CF92DF92EF92FF920F931F9314
:10121000CF93DF93CDB7DEB7CA1BDB0B0FB6F894C5
:10122000DEBF0FBECDBF09942A88398848885F8405
:101230006E847D848C849B84AA84B984C884DF8076
:10124000EE80FD800C811B81AA81B981CE0FD11D5A
:101250000FB6F894DEBF0FBECDBFED010895F89430
:02126000FFCFBE
:1012620010100C00000A02A2730AFFFF54010101D0
:10127200000F0A496E41697254656D7000480101A0
:1012820001000F0A496E41697248756D696400492F
:10129200010101000F0A496E496C6C756D690063AA
:1012A200010101001D01636E6400000000002C01B9
:1012B2008C00B9007901EA00C800DC000D0A004583
:1012C2004550524F4D2053455454494E4720666F66
:1012D2007220544B30312056455220302E3033008C
:1012E20046494E4520444944204E4F5420575249C6
:1012F200544500484558444154413A00307825301D
:1013020033583A0025303258002C0041726520597A
:101312006F75206D6F646966792074686973203F08
:101322002000454E4400575249544520444F4E45F3
:10133200005545435349443A00454E5445522053C3
:10134200455249414C204E554D4245523A004D417D
:101352004320414444524553533D004D41433D00D7
:0C136200444154412057524F54450000B4
:00000001FF
